:100000000C94750D0C949D0D0C949D0D0C949D0DF0
:100010000C949D0D0C949D0D0C949D0D0C949D0DB8
:100020000C949D0D0C949D0D0C949D0D0C949D0DA8
:100030000C949D0D0C949D0D0C949D0D0C949D0D98
:100040000C945E360C949D0D0C94BE330C940C34C1
:100050000C949D0D0C949D0D0C949D0D0C949D0D78
:100060000C949D0D0C949D0D3C2F626F64793E0A9B
:100070003C2F68746D6C3E0A10003C21444F435481
:100080005950452068746D6C205055424C494320AE
:10009000222D2F2F5733432F2F4454442048544DA3
:1000A0004C20342E30312F2F454E223E0A3C6874AE
:1000B0006D6C3E0A3C686561643E0A20203C7469B0
:1000C000746C653E4E616E6F64655549503C2F748B
:1000D00069746C653E0A20203C6D657461206E6118
:1000E0006D653D2276696577706F72742220636F4B
:1000F0006E74656E743D2277696474683D646576DC
:100100006963652D77696474682C206D696E696D0B
:10011000756D2D7363616C653D312C206D6178695F
:100120006D756D2D7363616C653D312C20696E6951
:100130007469616C2D7363616C653D31223E0A20E8
:10014000203C6C696E6B2072656C3D227374796C17
:100150006573686565742220687265663D226874FF
:1001600074703A2F2F636F64652E6A7175657279AA
:100170002E636F6D2F6D6F62696C652F312E302F7E
:100180006A71756572792E6D6F62696C652D312E9D
:10019000302E6D696E2E6373732220747970653D05
:1001A00022746578742F637373223E0A20203C7397
:1001B0006372697074207372633D22687474703A5C
:1001C0002F2F636F64652E6A71756572792E636F68
:1001D0006D2F6A71756572792D312E362E342E6D24
:1001E000696E2E6A732220747970653D2274657879
:1001F000742F6A617661736372697074223E3C2F5A
:100200007363726970743E0A20203C736372697074
:1002100074207372633D22687474703A2F2F636F79
:1002200064652E6A71756572792E636F6D2F6D6FBF
:1002300062696C652F312E302F6A71756572792E67
:100240006D6F62696C652D312E302E6D696E2E6A70
:10025000732220747970653D22746578742F6A6109
:100260007661736372697074223E3C2F73637269A6
:1002700070743E0AFA01252120627574746F6E73E2
:100280005F6C6973740A100025213A202F6865613C
:100290006465722E68746D6C0A3C2F686561643EFB
:1002A0000A3C626F64793E0A20203C6469762069CA
:1002B000643D22627574746F6E7322206461746190
:1002C0002D726F6C653D2270616765223E0A2020A9
:1002D00020203C64697620646174612D726F6C65C6
:1002E0003D22686561646572223E3C68313E42751C
:1002F00074746F6E733C2F68313E3C2F6469763E98
:100300000A202020203C64697620646174612D728B
:100310006F6C653D22636F6E74656E74223E3C7532
:100320006C20646174612D726F6C653D226C697321
:1003300074766965772220646174612D7468656DD7
:10034000653D2267222069643D22627574746F6E78
:10035000735F6C697374223E0A2521206275747480
:100360006F6E735F6C6973740A202020203C2F75B8
:100370006C3E3C2F6469763E0A202020200A202013
:1003800020203C64697620646174612D726F6C6515
:100390003D22666F6F7465722220636C6173733DDA
:1003A0002275692D626172223E0A202020202020C1
:1003B0003C627574746F6E20747970653D2262754D
:1003C00074746F6E2220646174612D69636F6E3D79
:1003D0002272656672657368222069643D227265C7
:1003E0006672657368223E526566726573683C2F5B
:1003F000627574746F6E3E0A2020202020203C61BC
:1004000020687265663D222F2220646174612D6927
:10041000636F6E3D22686F6D65223E486F6D653C6F
:100420002F613E0A202020203C2F6469763E0A205E
:10043000200A20203C2F6469763E0A25213A202F8D
:10044000666F6F7465722E68746D6C0AC401252125
:100450003A202F6865616465722E68746D6C0A3C81
:10046000736372697074207372633D222F696E64C6
:1004700065782E6A732220747970653D22746578E0
:10048000742F6A617661736372697074223E3C2FC7
:100490007363726970743E0A3C7374796C6520747E
:1004A0007970653D22746578742F637373223E649E
:1004B00069762E75692D626C6F636B2D62207B20CF
:1004C000746578742D616C69676E3A7269676874D7
:1004D0003B207D3C2F7374796C653E0A3C2F686528
:1004E00061643E0A3C626F64793E0A20203C646984
:1004F000762069643D2263726564697473222064A6
:100500006174612D726F6C653D2270616765223E7A
:100510000A202020203C64697620646174612D7279
:100520006F6C653D22686561646572223E0A202019
:10053000202020203C68313E437265646974733C1E
:100540002F68313E0A202020203C2F6469763E0A25
:10055000202020203C64697620646174612D726FD4
:100560006C653D22636F6E74656E74223E0A2020B6
:10057000202020203C756C20646174612D726F6CAA
:10058000653D226C697374766965772220646174B5
:10059000612D7468656D653D2267223E0A2020202A
:1005A00020202020203C6C693E3C612068726566FA
:1005B0003D22687474703A2F2F7777772E736963B2
:1005C000732E73652F7E6164616D2F223E0A0909C7
:1005D0003C68333E4164616D2044756E6B656C739D
:1005E000202D20754950205443502F4950205374DA
:1005F00061636B3C2F68333E0A09093C703E4E6FC5
:10060000772070617274206F662074686520436F74
:100610006E74696B69204F532E3C2F703E0A093C63
:100620002F613E3C2F6C693E0A2020202020202094
:10063000203C6C693E3C6120687265663D226874AE
:1006400074703A2F2F6C696E7578666F6375732EB0
:100650006F72672F7E6B61746A612F656C6563745E
:10066000726F6E6963732F3230303630362F61729D
:100670007469636C6530363036312E7368746D6C16
:10068000223E0A09093C68333E477569646F20536E
:100690006F63686572202D20454E4332384A3630EC
:1006A00020447269766572733C2F68333E0A0909EB
:1006B0003C703E4F726967696E616C206E6574773D
:1006C0006F726B20647269766572732075736564EE
:1006D000206576657279776865726520746F6461EC
:1006E000792E3C2F703E0A093C2F613E3C2F6C69ED
:1006F0003E0A20202020202020203C6C693E3C61C6
:1007000020687265663D22687474703A2F2F77777F
:10071000772E6769746875622E636F6D2F736465D9
:10072000313030302F4E616E6F64655549502F2245
:100730003E0A09093C68333E5374657068656E2053
:100740004561726C79202D204E616E6F646555494C
:10075000503C2F68333E0A09093C703E506F72745A
:1007600065642075495020746F2041726475696E0C
:100770006F204944452026616D703B20676F6F6490
:1007800020737475666620666F72204E616E6F64AA
:10079000652E3C2F703E0A093C2F613E3C2F6C6950
:1007A0003E0A20202020202020203C6C693E3C6115
:1007B00020687265663D22687474703A2F2F6D61EF
:1007C0006E6961636275672E776F726470726573AC
:1007D000732E636F6D2F223E0A09093C68333E6D0C
:1007E000616E696163627567202D205765622053D1
:1007F00065727665723C2F68333E0A09093C703E8B
:1008000043726561746564207468697320657861FA
:100810006D706C652C20616E64206D616E79206F47
:1008200074686572732E3C2F703E0A09093C703E55
:100830005669736974206D7920626C6F6720746FDC
:1008400020736565206D6F72652070726F6A6563D5
:100850007473213C2F703E0A093C2F613E3C2F6C83
:10086000693E0A2020202020203C2F756C3E0A2063
:100870002020203C2F6469763E0A202020203C6402
:10088000697620646174612D726F6C653D22666FBC
:100890006F7465722220636C6173733D2275692DDC
:1008A000626172223E0A2020202020203C612068C4
:1008B0007265663D222F2220646174612D69636F29
:1008C0006E3D22686F6D65223E486F6D653C2F61FD
:1008D0003E0A202020203C2F6469763E0A20203CDE
:1008E0002F6469763E0A25213A202F666F6F746562
:1008F000722E68746D6C0AA90425213A202F686550
:10090000616465722E68746D6C0A3C736372697001
:1009100074207372633D222F696E6465782E6A734A
:100920002220747970653D22746578742F6A61762F
:1009300061736372697074223E3C2F7363726970D5
:10094000743E0A3C7374796C6520747970653D223D
:10095000746578742F637373223E6469762E7569AB
:100960002D626C6F636B2D62207B20746578742D13
:10097000616C69676E3A72696768743B207D3C2FD1
:100980007374796C653E0A3C2F686561643E0A3C6D
:10099000626F64793E0A20203C6469762069643D78
:1009A00022686F6D652220646174612D726F6C65C1
:1009B0003D2270616765223E0A202020203C646948
:1009C0007620646174612D726F6C653D226865618B
:1009D000646572223E0A2020202020203C68313E9F
:1009E0004E616E6F64655549503C2F68313E0A2058
:1009F0002020203C2F6469763E0A202020203C6481
:100A0000697620646174612D726F6C653D22636F3D
:100A10006E74656E74223E0A2020202020203C75D2
:100A20006C20646174612D726F6C653D226C69731A
:100A300074766965772220646174612D7468656DD0
:100A4000653D2267223E0A20202020202020203CD5
:100A50006C693E3C6120687265663D222F62757448
:100A6000746F6E732E7368746D6C223E427574746D
:100A70006F6E733C2F613E3C2F6C693E0A20202034
:100A800020202020203C6C693E3C61206872656615
:100A90003D222F6C69676874732E7368746D6C22C5
:100AA0003E4C69676874733C2F613E3C2F6C693E15
:100AB0000A20202020202020203C6C693E3C612020
:100AC000687265663D222F73656E736F72732E7345
:100AD00068746D6C223E53656E736F72733C2F6148
:100AE0003E3C2F6C693E0A2020202020203C2F75A0
:100AF0006C3E0A202020203C2F6469763E0A20208C
:100B000020203C64697620646174612D726F6C658D
:100B10003D22666F6F7465722220636C6173733D52
:100B20002275692D626172223E0A20202020202039
:100B30003C6120687265663D222F6372656469744A
:100B4000732E7368746D6C2220646174612D696307
:100B50006F6E3D22696E666F223E437265646974F2
:100B6000733C2F613E0A2020202020203C61206819
:100B70007265663D22687474703A2F2F6D616E69DC
:100B800061636275672E776F726470726573732E1E
:100B9000636F6D2F323031322F30312F32382F7753
:100BA00065627365727665722F2220646174612DAF
:100BB00069636F6E3D2273746172223E48656C708A
:100BC0003C2F613E0A202020203C2F6469763E0A9B
:100BD00020203C2F6469763E0A25213A202F666F3B
:100BE0006F7465722E68746D6C0AF10225213A20CB
:100BF0002F6865616465722E68746D6C0A3C2F689D
:100C00006561643E0A3C626F64793E0A20203C6460
:100C100069762069643D226C696768747322206478
:100C20006174612D726F6C653D2270616765223E53
:100C30000A202020203C64697620646174612D7252
:100C40006F6C653D22686561646572223E0A2020F2
:100C5000202020203C68312069643D226F70223EB4
:100C60004C69676874733C2F68313E0A202020204D
:100C70003C2F6469763E0A202020203C646976205F
:100C8000646174612D726F6C653D22636F6E746573
:100C90006E74223E0A2521206C69676874735F6C4C
:100CA0006973740A202020203C2F6469763E0A2054
:100CB0002020203C64697620646174612D726F6C21
:100CC000653D22666F6F7465722220636C61737379
:100CD0003D2275692D626172223E0A20202020206B
:100CE000203C6120687265663D222F222064617479
:100CF000612D69636F6E3D22686F6D65223E486F9E
:100D00006D653C2F613E0A202020203C2F646976CF
:100D10003E0A20203C2F6469763E0A25213A202F86
:100D2000666F6F7465722E68746D6C0A40012521C0
:100D30002073656E736F72735F6C6973740A100051
:100D400025213A202F6865616465722E68746D6C88
:100D50000A3C2F686561643E0A3C626F64793E0A12
:100D600020203C6469762069643D2273656E736F50
:100D700072732220646174612D726F6C653D227004
:100D8000616765223E0A202020203C646976206449
:100D90006174612D726F6C653D2268656164657276
:100DA000223E3C68313E53656E736F72733C2F6810
:100DB000313E3C2F6469763E0A0A202020203C64A4
:100DC000697620646174612D726F6C653D22636F7A
:100DD0006E74656E74223E0A2020202020203C750F
:100DE0006C20646174612D726F6C653D226C697357
:100DF00074766965772220646174612D7468656D0D
:100E0000653D2267222069643D2273656E736F72AF
:100E1000735F6C697374223E0A25212073656E73BB
:100E20006F72735F6C6973740A2020202020203C4D
:100E30002F756C3E0A202020203C2F6469763E0AE4
:100E40000A202020203C64697620646174612D7240
:100E50006F6C653D22666F6F7465722220636C61F2
:100E600073733D2275692D626172223E0A20202033
:100E70002020203C627574746F6E20747970653D1B
:100E800022627574746F6E2220646174612D6963CF
:100E90006F6E3D2272656672657368222069643DDB
:100EA0002272656672657368223E5265667265736A
:100EB000683C2F627574746F6E3E0A2020202020DB
:100EC000203C6120687265663D222F222064617497
:100ED000612D69636F6E3D22686F6D65223E486FBC
:100EE0006D653C2F613E0A202020203C2F646976EE
:100EF0003E0A20203C2F6469763E0A25213A202FA5
:100F0000666F6F7465722E68746D6C0ACC01252152
:100F1000207365745F70696E0A0B002B4F4B0A04D7
:100F2000002428202723627574746F6E732720298C
:100F30002E6C69766528202770616765696E697413
:100F4000272C66756E6374696F6E286576656E749E
:100F5000297B0A202024282022627574746F6E2356
:100F6000726566726573682220292E636C69636BF3
:100F7000282066756E6374696F6E28652C75692903
:100F8000207B0A20202020242E67657428222F62CF
:100F90007574746F6E735F6C6973742E7368746D9F
:100FA0006C222C66756E6374696F6E28646174615F
:100FB00029207B0A2020202020202428222362753B
:100FC00074746F6E735F6C69737422292E68746D0C
:100FD0006C2864617461292E6C6973747669657715
:100FE00028277265667265736827293B0A202020CE
:100FF0002020207D293B0A20207D293B0A7D293B9A
:101000000A24282027236C69676874732720292EF7
:101010006C69766528202770616765696E69742739
:101020002C66756E6374696F6E286576656E7429BB
:101030007B0A20202428202273656C6563742E6C43
:10104000696768742220292E6368616E67652820AD
:1010500066756E6374696F6E28652C20756929202A
:101060007B0A20202020242E67657428222F736598
:10107000745F70696E2E7368746D6C3F70696E3D3D
:10108000222B652E7461726765742E6E616D652BFF
:10109000222676616C3D222B2428652E74617267AE
:1010A0006574292E76616C2829293B200A2020208E
:1010B000207D293B0A7D293B0A24282027237365AC
:1010C0006E736F72732720292E6C6976652820272E
:1010D00070616765696E6974272C66756E637469E3
:1010E0006F6E286576656E74297B0A20202428207F
:1010F00022627574746F6E237265667265736822FE
:1011000020292E636C69636B282066756E63746991
:101110006F6E28652C756929207B0A2020202024E9
:101120002E67657428222F73656E736F72735F6C00
:101130006973742E7368746D6C222C66756E63749B
:10114000696F6E286461746129207B0A2020202049
:1011500020202428222373656E736F72735F6C697D
:10116000737422292E68746D6C2864617461292E51
:101170006C69737476696577282772656672657322
:101180006827293B0A2020202020207D293B0A2097
:10119000207D293B0A7D293B0A78023C6469762040
:1011A000646174612D726F6C653D276669656C645E
:1011B000636F6E7461696E273E3C6C6162656C2082
:1011C000666F723D276C696768742D2575273E250B
:1011D000533C2F6C6162656C3E203C73656C6563AB
:1011E0007420636C6173733D276C69676874272092
:1011F0006E616D653D272575272069643D276C6903
:101200006768742D25752720646174612D726F6C79
:10121000653D27736C69646572273E3C6F70746925
:101220006F6E2076616C75653D2730273E4F4646D0
:101230003C2F6F7074696F6E3E3C6F7074696F6E97
:101240002076616C75653D2731273E4F4E3C2F6FF0
:101250007074696F6E3E3C2F73656C6563743E3CC1
:101260002F6469763E0D0A003C6C693E3C646976E9
:1012700020636C6173733D2775692D677269642DF6
:1012800061273E3C64697620636C6173733D27750A
:10129000692D626C6F636B2D61273E25533C2F6473
:1012A00069763E3C64697620636C6173733D277593
:1012B000692D626C6F636B2D62273E25753C2F6430
:1012C00069763E3C2F6469763E3C2F6C693E0D0A80
:1012D0000048494748004C4F57003C6C693E3C640D
:1012E000697620636C6173733D2775692D67726938
:1012F000642D61273E3C64697620636C6173733DA5
:101300002775692D626C6F636B2D61273E25533CF9
:101310002F6469763E3C64697620636C6173733D2B
:101320002775692D626C6F636B2D62273E25533CD8
:101330002F6469763E3C2F6469763E3C2F6C693E93
:101340000D0A006E6F7420666F756E6400BE1368C0
:10135000007800CB137A007402D81376028602EC70
:101360001388024C04FB134E04F7080A14F908EA28
:101370000B1714EC0B2C0D25142E0D3E0D391440BB
:101380000D0C0F48140E0F190F57141B0F1F0F5F72
:1013900014210F9911000000000000687474703A65
:1013A0002066696C65206F70656E205F5000687400
:1013B00074703A2066696C65206F70656E002F66E8
:1013C0006F6F7465722E68746D6C002F6865616450
:1013D00065722E68746D6C002F627574746F6E7315
:1013E0005F6C6973742E7368746D6C002F62757412
:1013F000746F6E732E7368746D6C002F6372656406
:101400006974732E7368746D6C002F696E646578EF
:101410002E7368746D6C002F6C69676874732E731B
:1014200068746D6C002F73656E736F72735F6C6997
:1014300073742E7368746D6C002F73656E736F72A6
:10144000732E7368746D6C002F7365745F70696EB2
:101450002E7368746D6C002F6F6B2E747874002F70
:10146000696E6465782E6A73002B524541445900B9
:101470004C696E6B20616B74696600256C753A204F
:1014800049503A25730D0A00BB1402C51403D01449
:1014900004DD1405000000EB1408F414070015091E
:1014A0000B15060000001515001E1501271502304A
:1014B00015033915044215050000004D61696E20C1
:1014C000476174650046726F6E7420446F6F7200DE
:1014D000426564726F6F6D20446F6F720042617479
:1014E00068726F6F6D20446F6F7200526564204C9C
:1014F000616D700059656C6C6F77204C616D700088
:10150000477265656E204C616D7000426C75652098
:101510004C616D700053656E736F722041005365AE
:101520006E736F7220420053656E736F72204300BA
:1015300053656E736F7220440053656E736F722033
:10154000450053656E736F72204600687474706452
:101550003A2061626F72740068747470643A20613A
:10156000626F72740068747470643A20636F6E6E98
:1015700065637465640068747470643A20636C6FAA
:101580007365640068747470643A206E6F20736CC5
:101590006173682C20636C6F73696E670068747484
:1015A00070643A206E6F206765742C20636C6F73D3
:1015B000696E670068747470643A2072656164696A
:1015C0006E670068747470643A2066696C65207395
:1015D000656E740068747470643A2063616C6C6941
:1015E0006E67206367690068747470643A2073657D
:1015F0006E64696E672066696C65006874747064F7
:101600003A2070726F63657373696E6720736372DB
:1016100069707400536372697074207374617465C7
:10162000207074723D257020703D25700D0A007386
:10163000656E6420706172742025702025750D0A16
:101640000025642E25642E25642E25640025303265
:10165000583A253032583A253032583A25303258E7
:101660003A253032583A2530325800256C753A20E8
:1016700025530D0A007463703A20676F74207265F9
:101680007365742C2061626F7274696E6720636F7A
:101690006E6E656374696F6E2E007463703A2066B7
:1016A0006F756E64206E6F20756E75736564206350
:1016B0006F6E6E656374696F6E732E007463703A3B
:1016C0002062616420636865636B73756D2E0075BD
:1016D00064703A206E6F206D61746368696E672074
:1016E000636F6E6E656374696F6E20666F756E648E
:1016F0000049676E6F72696E67206265636175731A
:1017000065207061636B65742077617320736C6909
:101710006365642E007564703A20626164206368BA
:1017200065636B73756D2E0069636D703A206E6F23
:10173000742069636D70206563686F2E0069703A6C
:10174000206E65697468657220746370206E6F72B4
:101750002069636D702E0049676E6F72696E672035
:1017600062656361757365207061636B6574207772
:10177000617320736C696365642E0069703A20623E
:10178000616420636865636B73756D2E0069703AE0
:1017900020667261676D656E742064726F7070652B
:1017A000642E00417373756D696E672069742077CC
:1017B000617320736C696365642062792074686565
:1017C000206E6574776F726B206C617965722E0084
:1017D00069703A207061636B65742073686F72740E
:1017E0006572207468616E207265706F72746564D2
:1017F00020696E204950206865616465722E006919
:10180000703A20696E76616C6964207665727369DE
:101810006F6E206F7220686561646572206C656E02
:101820006774682E00485454502F312E30004854AD
:1018300054502F312E3100323030200033303120DF
:101840000033303220002F3430342E68746D6C0039
:10185000436F6E74656E742D4C656E6774683A20C4
:1018600000436F6E74656E742D747970653A2061F3
:1018700070706C69636174696F6E2F6F63746574E7
:101880002D73747265616D0D0A0D0A00636F6E74BD
:10189000656E742D747970653A2000436F6E7465BF
:1018A0006E742D747970653A20746578742F637343
:1018B000730D0A0D0A00436F6E74656E742D747992
:1018C00070653A20696D6167652F6769660D0A0D5D
:1018D0000A00436F6E74656E742D747970653A20DA
:1018E000746578742F68746D6C0D0A0D0A00436F6F
:1018F0006E74656E742D747970653A20696D6167D8
:10190000652F6A7065670D0A0D0A00436F6E746576
:101910006E742D747970653A20746578742F706CCC
:1019200061696E0D0A0D0A00436F6E74656E742D49
:10193000747970653A20696D6167652F706E670D07
:101940000A0D0A00436F6E74656E742D74797065AC
:101950003A20746578742F746578740D0A0D0A0046
:101960000D0A002E6373730047455420002E6769EB
:101970006600485454502F312E3020323030204FE2
:101980004B0D0A5365727665723A207549502F31B6
:101990002E300D0A436F6E6E656374696F6E3A2068
:1019A000636C6F73650D0A00485454502F312E300C
:1019B00020343034204E6F7420666F756E640D0ACB
:1019C0005365727665723A207549502F312E300D6D
:1019D0000A436F6E6E656374696F6E3A20636C6F55
:1019E00073650D0A00686F73743A20002E68746D79
:1019F000002E68746D6C00687474703A2F2F004963
:101A00004359002F696E6465782E68746D6C002FE1
:101A1000696E6465782E7368746D6C002E6A7067E9
:101A2000006C6F636174696F6E3A20002E706E6790
:101A300000504F53542000505554200052656665A5
:101A40007265723A002E7368746D6C0074657874F8
:101A50002F68746D6C002E74657874002E74787421
:101A600000436F6E6E656374696F6E3A20636C6FCE
:101A700073650D0A557365722D4167656E743A2062
:101A80007549502F312E300D0A0D0A00000000005C
:101A9000240027002A0000000000250028002B0059
:101AA00000000000230026002900040404040404AC
:101AB00004040202020202020303030303030102FD
:101AC00004081020408001020408102001020408CC
:101AD00010200000000700020100000304060000BF
:101AE000000000000000941C783511241FBECFEFC9
:101AF000D8E0DEBFCDBF11E0A0E0B1E0EEE2F1E75B
:101B000002C005900D92A23AB107D9F717E0A2EAF8
:101B1000B1E001C01D92A739B107E1F71AE1CAEEA1
:101B2000DAE104C02297FE010E945A38C63ED1076E
:101B3000C9F70E94CE350C9495380C940000CF93D1
:101B4000DF93BC018230910510F462E070E0A09157
:101B50008F07B0919007ED01E0E0F0E040E050E049
:101B600021C0888199818617970769F48A819B81B2
:101B7000309719F09383828304C0909390078093E9
:101B80008F07FE0134C06817790738F441155105F5
:101B900019F08417950708F4AC01FE018A819B8136
:101BA0009C01E9012097E9F641155105A9F1CA0107
:101BB000861B970B049708F4BA01E0E0F0E02AC016
:101BC0008D919C91119784179507F9F46417750707
:101BD00081F412968D919C911397309719F093830D
:101BE000828304C09093900780938F07FD01329603
:101BF0004CC0CA01861B970BFD01E80FF91F6193CA
:101C0000719302978D939C9340C0FD0182819381D3
:101C10009C01D9011097A1F680918D0790918E07B4
:101C2000892B41F4809145019091460190938E0754
:101C300080938D074091470150914801411551050E
:101C400041F44DB75EB78091430190914401481B28
:101C5000590B20918D0730918E07CA01821B930B7F
:101C60008617970780F0AB014E5F5F4F841795078B
:101C700050F0420F531F50938E0740938D07F90188
:101C80006193719302C0E0E0F0E0CF01DF91CF916A
:101C90000895CF93DF93009709F450C0EC01229789
:101CA0001B821A82A0918F07B0919007109709F1BB
:101CB00040E050E0AC17BD0708F1BB83AA83FE01EA
:101CC00021913191E20FF31FAE17BF0779F48D9187
:101CD0009C911197280F391F2E5F3F4F398328831E
:101CE00012968D919C9113979B838A834115510580
:101CF00071F4D0939007C0938F0720C012968D91F6
:101D00009C911397AD01009711F0DC01D3CFFA013C
:101D1000D383C28321913191E20FF31FCE17DF07E6
:101D200069F488819981280F391F2E5F3F4FFA018E
:101D3000318320838A819B8193838283DF91CF913A
:101D40000895FC0188279927E89421912032E9F32E
:101D5000293010F02E30C8F32B3241F02D3239F4F7
:101D6000689404C00E94640F820F911D219120533A
:101D70002A30C0F31EF4909581959F4F0895FB0182
:101D8000DC0102C005900D9241505040D8F70895F3
:101D9000FC010590061621F00020D9F7C001089536
:101DA0003197CF010895FC01059006160110E1F767
:101DB0003197CF010895FB01DC0105900D920020C1
:101DC000E1F70895FC0105900020E9F780959095D2
:101DD0008E0F9F1F0895FB01DC014150504030F0F1
:101DE0008D910590801919F40020B9F7881B990B83
:101DF0000895FB01DC014150504048F005900D92E0
:101E00000020C9F701C01D9241505040E0F70895ED
:101E1000FB01DC0104C08D910190801921F4415037
:101E20005040C8F7881B990B0895FB01DC0102C0E4
:101E300001900D9241505040D8F70895DC0101C047
:101E40006D9341505040E0F70895FC018191861751
:101E500021F08823D9F7992708953197CF01089564
:101E6000FB01DC014150504048F001900D920020F0
:101E7000C9F701C01D9241505040E0F70895FC01A0
:101E800081E090E00190061609F4CF010020D1F71F
:101E900001970895FB0151915523A9F0BF01DC0181
:101EA0004D9145174111E1F759F4CD010190002002
:101EB00049F04D9140154111C9F3FB014111EFCF9C
:101EC00081E090E0019708957AE0979F902D879F99
:101ED000802D910D112408950F931F93CF93DF93BD
:101EE0008C01EB01009731F46115710519F420E0C4
:101EF00030E038C081E090E06EE070E00E941012A7
:101F0000FC019C01009771F180E88383209771F0B8
:101F1000D387C28781E8838380919107909192074C
:101F2000892B21F4F0939207E09391070115110595
:101F3000C9F0118700878381826083838091930732
:101F400090919407892B71F4F0939407E093930791
:101F50008091950790919607892B21F4F09396072D
:101F6000E0939507C901DF91CF911F910F910895DB
:101F7000A0E0B0E0EEEBFFE00C946E38FE01359689
:101F800061917191A0919307B091940713968C91F0
:101F90001397886013968C93809193079091940780
:101FA000AF010E943310E0919307F09194072381D1
:101FB000277F23832096E2E00C948A38AEE0B0E0DD
:101FC000E4EEFFE00C946C380D891E898F89988DA2
:101FD00097FF02C080E090E801979E838D831A836B
:101FE00009838EE08C839E01255E3F4FCE010196D2
:101FF000698D7A8DA9010E9433104D815E8157FD54
:102000000AC02F813885421753070CF49A01020F3A
:10201000131FF80110822E96E4E00C948838AEE08D
:10202000B0E0E5E1F0E10C946C380D891E898EE09A
:102030008C831A8309838FEF9FE79E838D839E0194
:10204000275E3F4FCE0101966F89788DA9010E94CE
:1020500033102F813885020F131FF80110822E963E
:10206000E4E00C948838ABE0B0E0E9E3F0E10C94F4
:102070005E383C012B015A01FC01178216828381D4
:1020800081FD03C06FEF7FEFC6C19AE0892E1E016C
:102090000894211C311CF3012381F20123FD859159
:1020A00023FF81912F01882309F4B2C1853239F4CD
:1020B00023FD859123FF81912F01853229F490E042
:1020C000B3010E944212E7CF982FFF24EE249924F7
:1020D000FFE1FF15D0F09B3269F09C3228F490327A
:1020E00059F0933291F40EC09D3249F0903369F467
:1020F00041E024C052E0F52A84E0F82A28C098E0A4
:10210000F92A25C0E0E1FE2A22C0F7FC29C0892F68
:1021100080538A3070F4F6FE05C0989C902C1124F0
:10212000980E15C0E89CE02C1124E80EF0E2FF2A7E
:102130000EC09E3229F4F6FC6BC140E4F42A07C0BD
:102140009C3619F450E8F52A02C0983649F4F20199
:1021500023FD959123FF91912F01992309F0B8CF89
:10216000892F8554833018F08052833038F444E04E
:1021700050E0A40EB51E5FE359830FC0933631F0D3
:10218000933779F0933509F056C020C0F50180816E
:10219000898342E050E0A40EB51E610101E010E029
:1021A00012C0F501C080D180F6FC03C06FEF7FEF55
:1021B00002C0692D70E042E050E0A40EB51EC601D9
:1021C0000E9437128C015FE7F52214C0F501C08030
:1021D000D180F6FC03C06FEF7FEF02C0692D70E085
:1021E00042E050E0A40EB51EC6010E942C128C01E4
:1021F00050E8F52AF3FE07C01AC080E290E0B30170
:102200000E944212EA948E2D90E008171907A8F355
:102210000EC0F601F7FC8591F7FE81916F0190E009
:10222000B3010E944212E110EA94015010400115DE
:10223000110579F7EAC0943611F0993669F5F7FE81
:1022400008C0F501208131814281538184E090E012
:102250000AC0F501808191819C01442737FD40959A
:10226000542F82E090E0A80EB91E9FE6F92257FF96
:1022700009C050954095309521953F4F4F4F5F4F86
:10228000E0E8FE2ACA01B901A1012AE030E00E947B
:102290006E12D82ED21840C0953729F41F2D1F7EFC
:1022A0002AE030E01DC01F2D197F9F3661F0903766
:1022B00020F4983509F0ACC00FC0903739F098374A
:1022C00009F0A6C004C028E030E00AC0106114FD87
:1022D000146020E130E004C014FD166020E132E01B
:1022E00017FF08C0F501608171818281938144E00C
:1022F00050E008C0F50180819181BC0180E090E050
:1023000042E050E0A40EB51EA1010E946E12D82E2C
:10231000D2188FE7F82EF122F6FE0BC05EEFF52201
:10232000D91438F4F4FE07C0F2FC05C08FEEF82291
:1023300002C01D2D01C0192DF4FE0DC0FE01ED0DD2
:10234000F11D8081803319F499EEF92208C01F5FD6
:10235000F2FE05C003C08F2D867809F01F5F0F2D98
:10236000F3FC14C0F0FE0FC01E1510F09D2C0BC026
:102370009D2C9E0C911A1E2D06C080E290E0B301A8
:102380000E9442121F5F1E15C0F304C01E1510F4F8
:10239000E11A01C0EE2404FF0FC080E390E0B30116
:1023A0000E94421202FF1DC001FD03C088E790E0B9
:1023B0000EC088E590E00BC0802F867891F001FF79
:1023C00002C08BE201C080E2F7FC8DE290E0B30135
:1023D0000E94421206C080E390E0B3010E944212C4
:1023E0009A94D914C0F3DA94F101ED0DF11D8081B6
:1023F00090E0B3010E944212DD20A9F706C080E2FE
:1024000090E0B3010E944212EA94EE20C1F743CE5D
:10241000F30166817781CB012B96E2E10C947A3847
:102420000F931F93CF93DF93689F8001699F100DD7
:10243000789F100D1124C8010E949F0DEC01009798
:1024400029F060E070E0A8010E941E0FCE01DF912C
:10245000CF911F910F910895FC010590615070403C
:102460000110D8F7809590958E0F9F1F0895FC015D
:102470006150704001900110D8F7809590958E0FB3
:102480009F1F08950F931F93CF93DF938C01EB0150
:102490008B8181FF1BC082FF0DC02E813F818C810B
:1024A0009D812817390764F4E881F9810193F98344
:1024B000E88306C0E885F985802F0995892B31F4DA
:1024C0008E819F8101969F838E8302C00FEF1FEF45
:1024D000C801DF91CF911F910F910895FA01AA27AA
:1024E000283051F1203181F1E8946F936E7F6E5F57
:1024F0007F4F8F4F9F4FAF4FB1E03ED0B4E03CD005
:10250000670F781F891F9A1FA11D680F791F8A1FE7
:10251000911DA11D6A0F711D811D911DA11D20D04E
:1025200009F468943F912AE0269F11243019305D08
:102530003193DEF6CF010895462F4770405D4193F9
:10254000B3E00FD0C9F7F6CF462F4F70405D4A3346
:1025500018F0495D31FD4052419302D0A9F7EACF0E
:10256000B4E0A6959795879577956795BA95C9F73D
:1025700000976105710508959B01AC010A2E069430
:102580005795479537952795BA95C9F7620F731FE9
:10259000841F951FA01D08959093A7018093A60105
:1025A0007093A3016093A2015093A5014093A401ED
:1025B0000895FC01178A168A83E00895EF92FF922E
:1025C0000F931F93CF93DF937C010E94A21509E420
:1025D00011E015C088819981FC01DF010D90002078
:1025E000E9F71197AE1BBF0BB701AD010E94EB0ECF
:1025F000892B19F42A813B8109C00E5F1F4FF80116
:10260000C081D181209731F729ED32E1C901DF91F5
:10261000CF911F910F91FF90EF900895CF93DF938B
:10262000EC018E899F89009721F0813C9105A1F5ED
:102630000BC0C657DF4F19821882CA58D04017C046
:1026400081EC90E09F8B8E8BCE0146966AED73E114
:10265000AE010E94121F823014F480E020C0FE01FF
:10266000E657FF4F80819181019691838083C65701
:10267000DF4F88819981CA58D0409C01220F331FB7
:10268000280F391FE091A201F091A301E20FF31F7F
:1026900085919491892BA1F61F8A1E8A83E0DF9190
:1026A000CF910895CF93DF93EC018E899F89009796
:1026B00021F0813A9105A1F50BC0C657DF4F198271
:1026C0001882CA58D04017C081EA90E09F8B8E8B49
:1026D000CE01469660E274E1AE010E94121F823084
:1026E00014F480E020C0FE01E657FF4F8081918105
:1026F000019691838083C657DF4F88819981CA589C
:10270000D0409C01220F331F280F391FE091A401F4
:10271000F091A501E20FF31F85919491892BA1F609
:102720001F8A1E8A83E0DF91CF910895CF93DF93B4
:10273000EC018E899F89009721F089389105A1F5D8
:102740000BC0C657DF4F19821882CA58D04017C035
:1027500089E890E09F8B8E8BCE0146966EE674E101
:10276000AE010E94121F823014F480E020C0FE01EE
:10277000E657FF4F80819181019691838083C657F0
:10278000DF4F88819981CA58D0409C01220F331FA6
:10279000280F391FE091A601F091A701E20FF31F66
:1027A00085919491892BA1F61F8A1E8A83E0DF917F
:1027B000CF910895FC01E657FF4F20813181C90177
:1027C000880F991F820F931FE091A201F091A3013E
:1027D000E80FF91F329624913297459154918DB7A5
:1027E0009EB70E970FB6F8949EBF0FBE8DBFEDB784
:1027F000FEB7319680911D0490911E04ADB7BEB70F
:1028000012969C938E9311978EEB91E09383828323
:102810008BE991E1958384832683178251874087D2
:1028200022871386248715860E94DE0F2DB73EB7B8
:10283000225F3F4F0FB6F8943EBF0FBE2DBF0895E5
:10284000EF92FF920F931F93E0901D04F0901E04EF
:10285000FC01E657FF4F20813181C901880F991F84
:10286000820F931F2091A4013091A501280F391FD9
:10287000F901059114912E5F3F4FF90184910E9457
:1028800045372DB73EB72A5030400FB6F8943EBFBB
:102890000FBE2DBFEDB7FEB73196ADB7BEB71296DE
:1028A000FC92EE9211972EEB31E03383228328E6DF
:1028B00032E13583248317830683918780870E94C2
:1028C000DE0FEDB7FEB73A960FB6F894FEBF0FBE17
:1028D000EDBF1F910F91FF90EF9008950F931F93FD
:1028E000CF93DF9300911D0410911E04FC01E65765
:1028F000FF4F20813181C901880F991F820F931FDB
:102900002091A6013091A701280F391FF901C59127
:10291000D4912E5F3F4FF90184910E940638892B94
:1029200019F426ED32E102C021ED32E18DB79EB7F8
:102930000A970FB6F8949EBF0FBE8DBFEDB7FEB7D6
:102940003196ADB7BEB712961C930E9311978EEBCE
:1029500091E0938382838AED92E195838483D78388
:10296000C683318720870E94DE0FEDB7FEB73A9607
:102970000FB6F894FEBF0FBEEDBFDF91CF911F9150
:102980000F910895CF92DF92EF92FF920F931F93D2
:10299000CF93DF936C01FC0186899789009739F00A
:1029A000863F910509F049C0C3E4D3E139C08601EF
:1029B0000F591F4FC8010E943F1EC80160E071E01F
:1029C0000E944A0F7C01C80165E071E00E944A0F35
:1029D000EC01E114F10411F0009719F4C3E4D3E120
:1029E00017C0C70104960E94A10E182FCE010496AD
:1029F0000E94A10E682F812F0E94D337812F0E9441
:102A00000638892B19F4C6EDD2E102C0C1EDD2E13E
:102A1000F60182A5886082A786EF90E0978B868B6F
:102A2000CE010E94E20EAC01C6014696BE010E9494
:102A3000611F823014F480E004C0F601178A168A00
:102A400083E0DF91CF911F910F91FF90EF90DF9086
:102A5000CF9008950F931F93CF93DF93EC018E894E
:102A60009F89009731F08B3D9105E1F503E413E177
:102A70002CC08E010F591F4FC8010E943F1EC80174
:102A800060E071E00E944A0F009719F403E413E13B
:102A900015C004960E94A10E182F0E94063861E00E
:102AA0006827812F0E94D337812F0E940638892BF7
:102AB00019F406ED12E102C001ED12E18AA5886069
:102AC0008AA78BED90E09F8B8E8BC8010E94E20E4F
:102AD000AC01CE014696B8010E94611F823014F409
:102AE00080E003C01F8A1E8A83E0DF91CF911F918F
:102AF0000F910895A0E0E0E020E030E014C0FC0178
:102B0000E20FF31FA491FB01E20FF31FE491AE1754
:102B100069F42F5F3F4F41505040EA2FAA2319F428
:102B200020E030E00DC04115510549F72A2F332729
:102B300027FD30958E2F992787FD9095281B390BFF
:102B4000C9010895CF93DF93FC01EC01649106C0A5
:102B500082E697E00E940736FE016491662329F021
:102B60006D3019F021966A3099F782E697E00E945D
:102B70000F36DF91CF9108956F927F928F929F923F
:102B8000AF92BF92CF92DF92EF92FF920F931F937B
:102B9000DF93CF9300D000D000D0CDB7DEB75C017B
:102BA0004B018BE993E10E940E1EC5010E94A21504
:102BB000EE24FF249DE4C92E93E1D92E3E01089412
:102BC000611C711CC301B60146E050E00E94BF0EBB
:102BD000A114B10409F441C009811A81011511053C
:102BE00009F43BC0C8010E94E20EAC01C501B80166
:102BF0000E947A15892B89F58B819C81F401918340
:102C00008083ED81FE8185919491F4019383828389
:102C100081E0E82EF12C21E089819A81892B39F01D
:102C2000222329F486E090E0C80ED91ECBCFC7013D
:102C300026960FB6F894DEBF0FBECDBFCF91DF91C1
:102C40001F910F91FF90EF90DF90CF90BF90AF90CA
:102C50009F908F907F906F90089520E0DDCF6F92CE
:102C60007F928F929F92AF92BF92CF92DF92EF921C
:102C7000FF920F931F93DF93CF9300D000D000D02B
:102C8000CDB7DEB75C014B018EEA93E10E940E1EC8
:102C9000C5010E943F1E4DE4C42E43E1D42EEE2414
:102CA000FF243E010894611C711CC301B60146E07B
:102CB00050E00E94BF0EA114B10401F109811A81F4
:102CC00001151105D9F0C8010E94E20EAC01C50141
:102CD000B8010E94EB0E892B89F48B819C81F40151
:102CE00091838083ED81FE8185919491F40193839A
:102CF000828321E031E0E32EF12C01C020E08981C4
:102D00009A81892B39F0222329F486E090E0C80EBD
:102D1000D91ECBCFC70126960FB6F894DEBF0FBEE3
:102D2000CDBFCF91DF911F910F91FF90EF90DF907A
:102D3000CF90BF90AF909F908F907F906F900895AD
:102D400089EA91E00E94991C809155019091560169
:102D50000197B9F48091A80180FF13C082E090E050
:102D600090935601809355010E94A61700D089E6E2
:102D700094E1EDB7FEB7928381830E94B80F0F9064
:102D80000F9008950F931F93DF93CF93CDB7DEB7C6
:102D900064970FB6F894DEBF0FBECDBF0197B9F5AB
:102DA000CB010E94DC1F89EA91E08E010F5F1F4F6B
:102DB000B8010E94881D0E94A6362DB73EB7285044
:102DC00030400FB6F8943EBF0FBE2DBFEDB7FEB733
:102DD00031962BE734E1ADB7BEB712963C932E93F4
:102DE00011976283738384839583178306830E947C
:102DF000B80F8091A80181608093A8012DB73EB7DC
:102E0000285F3F4F0FB6F8943EBF0FBE2DBF6496AC
:102E10000FB6F894DEBF0FBECDBFCF91DF911F91EB
:102E20000F91089588E061E00E94673787E061E0D4
:102E30000E94673789E061E00E94673786E061E0C1
:102E40000E94673782E060E00E94673782E061E0BD
:102E50000E94D33783E060E00E94673783E061E03F
:102E60000E94D33784E060E00E94673784E061E02D
:102E70000E94D33785E060E00E94673785E061E01B
:102E80000E94D33788E894E167E974E146EA54E1A7
:102E90000E94CC12089587E997E160E070E00E94FB
:102EA0006C0F0895DF93CF93CDB7DEB76A970FB657
:102EB000F894DEBF0FBECDBFDE011196E2E7F1E070
:102EC00086E001900D928150E1F789EA91E0BE0120
:102ED0006F5F7F4F4AE00E94CA1D0E94121782E670
:102EE00097E040E056E960E070E00E9447340E94BD
:102EF0004B1789EA91E0BE01695F7F4F0E948D1DEB
:102F000089EA91E00E94C51D80E794E10E940E1EAF
:102F100089EA91E062EC76E10E944D1D6A960FB657
:102F2000F894DEBF0FBECDBFCF91DF9108950F9310
:102F30001F93082F112707FD109582E697E0602F59
:102F40000E943835C8011F910F91089580E090E5E7
:102F500065EC7BE10E947A220895EF92FF920F9335
:102F60001F93CF93DF93EC0189819A8121E0833114
:102F70009207C1F021E08431920718F4892B51F0B7
:102F800085C021E08831920731F18A52914009F0E1
:102F90007DC061C084EB95E10E944D1E83E191E00C
:102FA0009A838983CE01019660E20E94741E82306A
:102FB0000CF470C0CE018F9668E679E144E050E0F1
:102FC0000E94EB0E892B19F08DE995E114C088E180
:102FD00091E09A8389837E010894E11CF11CC7016A
:102FE00060E20E94741E82300CF454C08FA58F32B0
:102FF00059F084E895E10E944D1E80E180932504FC
:103000001A82198282E047C088A98E010F591F4F8A
:10301000803241F4C8016FE07AE14EE150E00E9455
:10302000F90E0FC0C7010E94531EFE01E80FF91FE1
:1030300016A6BE01615D7F4FC8014EE150E00E94BF
:10304000300FC158DF4F81E08883CF57D0408AE2EC
:1030500091E09A8389838E010F5F1F4FC8016AE058
:103060000E94741E8230B4F0CE018F966CE37AE138
:1030700048E050E00E94EB0E892B49F7C8010E94FE
:10308000531EFE01E80FF91F15A6E1CF1A8219821F
:1030900083E001C080E0DF91CF911F910F91FF90FD
:1030A000EF9008950F931F93CF93DF938C01EB0163
:1030B000FC01868997898E3D910509F486C08F3D74
:1030C000910590F4853D910561F1863D910518F4D7
:1030D000892BF9F0D6C0893D910509F440C08C3D9B
:1030E000910509F0CEC05BC0823E910509F49BC0FA
:1030F000833E910528F4803E910509F0C2C07DC051
:10310000843E910509F4A7C0863E910509F0B9C037
:10311000AEC0F80182A5886082A785ED90E0978B0C
:10312000868BCE010E94E20EAC01C8014696BE011C
:103130000E94611F82300CF4A9C0C8018F599F4FB3
:103140006EE270E00E943F0FEC01009779F4F80105
:1031500082A5886082A789ED90E0978B868BC80155
:10316000469661E678E14AE250E087C061EF79E196
:1031700045E050E00E94EB0E892B49F0CE0165E45A
:103180007AE146E050E00E94EB0E892B69F4F801E9
:1031900082A5886082A78CED90E0978B868BC80112
:1031A000469662ED78E143C0CE0163E679E144E002
:1031B00050E00E94EB0E892B79F4F80182A588601B
:1031C00082A78EED90E0978B868BC80146966BE9BF
:1031D00078E14AE150E051C0CE016CE27AE144E08E
:1031E00050E00E94EB0E892B69F4F80182A58860FB
:1031F00082A780EE90E0978B868BC801469668E2A6
:1032000079E115C0CE016DE679E144E050E00E941D
:10321000EB0E892B79F4F80182A5886082A782EEF3
:1032200090E0978B868BC801469666EB78E14BE180
:1032300050E023C0CE016CE17AE144E050E00E940E
:10324000EB0EF80122A5892B59F4286022A784EE01
:1032500090E0978B868BC80146966EEE78E10BC0A6
:103260002860F80122A786EE90E0978B868BC80134
:1032700046966BE079E14CE150E00E94611F82309C
:103280002CF0F801178A168A83E001C080E0DF91F4
:10329000CF911F910F910895AF92BF92CF92DF927D
:1032A000EF92FF920F931F938C0186E8C82ED12CCA
:1032B000C00ED11ED601AD90BC90C5016AE070E091
:1032C0000E94D30E7C010894E11CF11C00D000D0B8
:1032D00000D0EDB7FEB7319684E196E1ADB7BEB749
:1032E00012969C938E931197B382A282F582E48208
:1032F0000E94B80F08571F4FF601808191818E19E7
:103300009F09D8012D913C911197820F931F8D93A6
:103310009C93F182E082EDB7FEB736960FB6F89433
:10332000FEBF0FBEEDBF1F910F91FF90EF90DF909A
:10333000CF90BF90AF900895CF93DF93EC018E892B
:103340009F89009721F08F379105F1F52CC000D0AF
:1033500000D000D0EDB7FEB731968FE296E1ADB761
:10336000BEB712969C938E931197C058DF4F8881F9
:10337000998193838283249688819981C458D0400F
:10338000958384830E94B80F8AA588608AA78FE7F7
:1033900090E09F8B8E8B8DB79EB706960FB6F894F4
:1033A0009EBF0FBE8DBFC058DF4F688179812496C4
:1033B00048815981C458D040CE0146960E94611F71
:1033C000823014F480E003C01F8A1E8A83E0DF91FC
:1033D000CF910895CF93DF93EC018E899F89009759
:1033E00021F08E36910559F504C08EE690E09F8B52
:1033F0008E8BCE01469667E27CE1AE010E94121FE1
:10340000823014F480E01EC0FE01EE57FF4FCC570F
:10341000DF4F2081318148815981C458D040241B1D
:10342000350B31832083FE01E058FF4F808191816D
:10343000840F951F9183808312161306B4F21F8A9E
:103440001E8A83E0DF91CF910895EF92FF920F9350
:103450001F93CF93DF93EC018BEF95E10E944D1EFC
:103460008DA59EA5833A910509F444C0843A91053F
:1034700020F4892B09F4C7C0D0C0873A910509F41C
:1034800045C0853C910509F0C8C0A0C090E8E92E70
:10349000F12CEC0EFD1ED701ED91FC91849185324B
:1034A00009F0C7C0319684913197813209F0C1C0CB
:1034B0008E010A571F4F3396D801ED93FC93C857DE
:1034C000DF4F2350304039832883C858D04031978C
:1034D00084918A3399F487EE95E10E944D1EF8019C
:1034E000808191810196B7010E94BC1583EA90E02A
:1034F0009EA78DA7CE010E94EA1916C084ED95E122
:103500000E944D1E87EA90E09EA78DA78E010A5764
:103510001F4FD8018D919C910E94DE12FC01D801B1
:103520006D917C91CE01099582300CF47AC0CE0168
:103530000E944C19FE01E058FF4FCA57DF4F8881A7
:103540009981C658D04091838083FE01EE57FF4F8A
:10355000C857DF4F88819981C858D04052C0CC5796
:10356000DF4F9983888304C0CC57DF4F398328838A
:10357000C458D040C058DF4F08811981C058D0408E
:10358000F8018491853219F4C801019601C0C8017F
:1035900065E270E00E94C80E0097A1F080179107C5
:1035A00089F0801B910BFE01EC57FF4F91838083C4
:1035B000D70152962D913C9153978217930714F09F
:1035C0003183208385EC90E09EA78DA7CE010E94D9
:1035D0009C19823034F1FE01E058FF4FCC57DF4F89
:1035E0008081918128813981C458D040820F931FF6
:1035F00091838083FE01EE57FF4F80819181821B72
:10360000930B91838083CE57DF4F28813981C25835
:10361000D040121613060CF439CF1EA61DA683E067
:1036200001C080E0DF91CF911F910F91FF90EF904B
:103630000895E0902604F0902704F7018289938989
:10364000821793070CF48BCF8FCFEF92FF920F93DB
:103650001F93CF93DF93EC018BA59CA5893F910528
:1036600009F469C08A3F910538F40097A1F0873FBB
:10367000910509F06CC02BC021E08130920709F45C
:1036800052C021E08430920709F455C08D3F910566
:1036900009F05DC02AC021E6E22EF12CEC0EFD1EE1
:1036A0008E0100581F4FC701B8010E942F16892BA9
:1036B000C1F486E498E1B8010E942F16C70166E4C0
:1036C00078E10E94DB0E87EF90E09CA78BA7CE01EC
:1036D00068EA79E10E9452188230ECF189EF90E0BB
:1036E00028C08DEF90E09CA78BA7CE0162E779E11F
:1036F0000E94521882307CF1CE018F599F4F6EE2AA
:1037000070E00E94250F009791F065E47AE146E0B1
:1037100050E00E94EB0E892B51F41EA61DA681E0FD
:1037200091E09CA78BA7CE010E94251A07C084E0D8
:1037300091E09CA78BA7CE010E94EA1982305CF031
:1037400083EC95E10E944D1E80E1809325041CA628
:103750001BA683E001C080E0DF91CF911F910F9104
:10376000FF90EF900895CF93DF93EC010E94AD1787
:10377000C158DF4F8881CF57D040813019F4CE0136
:103780000E94251BDF91CF910895EF92FF920F9336
:103790001F93CF93DF93C0912604D09127044091CB
:1037A0002504242F30E0C90180739070892B11F417
:1037B00047FF03C086E795E141C03EE1E32EF12CCF
:1037C000EC0EFD1E46FF1EC08701015D1F4FCE019E
:1037D0004F96B80141E350E00E94FF1ECE01C4960F
:1037E000B80141E350E00E94FF1EF70114A613A6A2
:1037F000C356DF4F1882CD59D04085E695E10E942F
:103800004D1E12C0E114F104A1F043FF0DC08E8DD6
:103810008F5F8E8F843148F080E28093250488E5A5
:1038200095E10E944D1E01C01E8EC7010E94B31B70
:1038300007C080E2809325048BE495E10E944D1E31
:10384000DF91CF911F910F91FF90EF9008950F930B
:103850001F93DC01AE57BF4F2D913C911197A25899
:10386000B040E0912604F091270482899389FD01FC
:10387000EC57FF4F821793071CF49183808302C09B
:1038800031832083A058BF4F6D917C9111978D019A
:103890000C5F1F4FF8014081518180911D04909170
:1038A0001E040E94BF0EF801808191811F910F912B
:1038B0000895FC01838D948D9093160280931502D8
:1038C000858D968D9093180280931702878D90A115
:1038D00090931E0280931D0281A192A190932002D9
:1038E00080931F0287A190A590931A0280931902DA
:1038F00081A592A590931C0280931B022091B9018F
:103900003091BA012115310531F0B39681E090E094
:10391000BF01F90109950895E091BB01F091BC0147
:10392000309709F0099508951092BA011092B901E3
:103930000895CF93DF93EC0184EF91E067E272E0AA
:103940000E9441329093220480932104892B51F1EB
:1039500080913302909134028830910589F481E09E
:103960000E94E9228091210490912204892B09F47C
:1039700091C00E94742D80912104909122040DC069
:103980008850964009F086C00E94BE2C8091210488
:1039900090912204009709F47DC067E272E00E94D2
:1039A000B73278C0CE010E946821892B09F472C019
:1039B000CE010E94562188E294E0909327048093E0
:1039C000260482E00E94E922809121049091220441
:1039D000892B51F00E94742D809121049091220432
:1039E00067E272E00E94B73282E295E0909327048A
:1039F0008093260482E00E94E92280912104909124
:103A00002204892B51F00E94742D80912104909101
:103A1000220467E272E00E94B73286E296E0909359
:103A200025068093240685E00E94E92280912104E6
:103A300090912204892B51F00E94742D80912104D1
:103A40009091220467E272E00E94B73281E396E02F
:103A5000909325068093240685E00E94E9228091B8
:103A6000210490912204892B51F00E94742D8091A1
:103A700021049091220467E272E00E94B7322896F6
:103A8000CE010E946821892B29F0CE010E94562187
:103A90000E947A2EDF91CF910895FC01718B608B8B
:103AA00081E292E066E070E00E9410310895FA0130
:103AB00020813181428153818DB79EB70C970FB61B
:103AC000F8949EBF0FBE8DBFEDB7FEB73196ADB770
:103AD000BEB712967C936E93119781E496E193831F
:103AE0008283C90190709583848336831782CA01CB
:103AF000907091878087528713860E940F108DB730
:103B00009EB70C960FB6F8949EBF0FBE8DBF08955A
:103B100045E152E00E94571D08958DB79EB740972A
:103B20000FB6F8949EBF0FBE8DBFEDB7FEB73196AE
:103B3000ADB7BEB712967C936E9311978DE496E164
:103B40009383828380912102848315828091220253
:103B500086831782809123028087118680912402B8
:103B6000828713868091250284871586809126029C
:103B7000868717860E940F108DB79EB740960FB6A6
:103B8000F8949EBF0FBE8DBF08950E94B83388235E
:103B9000E1F30895DF92EF92FF920F931F938C0150
:103BA000F62EE72ED42EE62FF72F80818093210268
:103BB000818180932202828180932302838180937A
:103BC00024028481809325028581809326020E94AD
:103BD00051318F2D9E2D6D2D0E940F3382E00E945A
:103BE00005326AE070E080E090E00E94DA36C801B9
:103BF00044EF51E060E070E00E948E21C801089619
:103C000040E157E260E070E00E948E210E943D2278
:103C10001F910F91FF90EF90DF9008950F931F93E6
:103C20008C010E94A6362DB73EB7285030400FB603
:103C3000F8943EBF0FBE2DBFEDB7FEB731962BE611
:103C400036E1ADB7BEB712963C932E9311976283BF
:103C5000738384839583178306830E94B80F2DB7DF
:103C60003EB7285F3F4F0FB6F8943EBF0FBE2DBF43
:103C700082E697E00E9428351F910F9108950F93D7
:103C80001F93BC0102E617E0C8010E944B36C80131
:103C90000E9428351F910F9108950E940E1E0895CD
:103CA0000E94A6360895FC01228933898089918972
:103CB000281B390BC9010895FC0184859585892B42
:103CC00011F081E008959489892F8770823029F45A
:103CD000987F9360948B80E008958091250490E014
:103CE00096958795817008951F93CF93DF93EC018C
:103CF000162F8A819B81009729F08A51914009F003
:103D000077C010C02A893B89888599859F878E87CF
:103D1000398B288B8C859D85892BC9F58AE191E0AB
:103D20009B838A83CE010E945C1E882309F463C0B2
:103D30008C89887F82608C8B80911D0490911E04F9
:103D40009F838E8380912104909122049D878C878C
:103D50001EC0EE81FF812081EE85FF8520838E814C
:103D60009F8101969F838E838E859F8501969F8775
:103D70008E878C859D8501979D878C8788899989F9
:103D80000197998B888B211711F482E021C08889D3
:103D90009989892B21F08C859D85892BD1F68C857D
:103DA0009D85892B79F480E013C0EE81FF8181919C
:103DB000215030403D872C87FF83EE83811711F41B
:103DC00083E006C02C853D852115310571F781E022
:103DD00081FFA0CF2A893B898889998928173907CB
:103DE00039F48C89887F8C8B1B821A8280E003C017
:103DF0001B821A8283E0DF91CF911F910895FC010D
:103E00008489887F848B1586148671876087538B9D
:103E1000428B77876687518B408B11821082138289
:103E200012820895CF93DF93EC01FB012A813B813D
:103E30002115310521F02D3E3105E9F52AC0611526
:103E4000710521F41B821A8282E038C08C89887F38
:103E50008C8BCA010995BC019B878A8780911D04C0
:103E600090911E049D838C83E0912604F091270499
:103E7000228933892617370708F4B9010E94D32213
:103E80008C89887F86608C8B8DEE90E09B838A8303
:103E90000BC080912504282F30E0B901617070704B
:103EA00080FD04C082FDD5CF81E008C0662389F281
:103EB0008C89887F8C8B1B821A8283E0DF91CF9163
:103EC0000895CF93DF93EC018A819B81009729F0BD
:103ED0008A3C910509F06AC012C04115510521F4D0
:103EE0001B821A8282E065C07D836C835B874A8770
:103EF0008C89887F52C08AEC90E09B838A839C895E
:103F0000892F8770863021F48091250482FF22C09A
:103F10002A853B85E0912604F09127046289738904
:103F2000492F48706217730728F48C819D814423C0
:103F300051F005C08C819D81442321F0B9010E947C
:103F4000BE2203C0B9010E94D3228C89887F86607B
:103F50008C8B02C080FD02C080E02BC02A853B858F
:103F6000E0912604F0912704428953898C819D8138
:103F70004217530748F4241B350B3B872A87840FCD
:103F8000951F9D838C8306C0820F931F9D838C8316
:103F90001B861A868C89887F81608C8B8A859B859D
:103FA000892B09F0A8CF8C89807F8C8B1B821A8289
:103FB00083E0DF91CF910895DF93CF9300D000D0BD
:103FC000CDB7DEB7E0910F02F0911002309711F0FB
:103FD00015821482FC01808191819A838983828178
:103FE00093819C838B83CE01019660E075E340E46E
:103FF00051E20E946C2B9093100280930F020F905D
:104000000F900F900F90CF91DF9108950F931F9312
:10401000CF93DF93C0911D04D0911E0488819981B4
:104020000E94BA2280931302823008F085C0082FC4
:1040300010E089E290E0089F9001099F300D189FE1
:10404000300D1124F901E354FE4F8081823009F0D4
:1040500073C083E080838B818F708483882341F0D9
:1040600084E08083C9018E539E4F60E070E04FC0B2
:104070008E819F810E94BA2280931402E0911D04D8
:10408000F0911E043C96CF0101962081FC01E20FC5
:10409000F11D80818823B9F7359649C08081807CE5
:1040A00019F0EF0122960BC0CF0101962081FC018F
:1040B000E20FF11D80818823B9F7EF0121968881F5
:1040C00099818050914031F58A819B818050914047
:1040D00009F58885998580509440E1F489E290E063
:1040E000089FB001099F700D189F700D1124FB01EE
:1040F000E354FE4F8A859B8596A385A38C859D8579
:1041000090A787A3CB018E539E4F6E517E4F0E9486
:104110008C1C12C0888599850E94BA22FC013A96AF
:10412000EC0FFD1F80911402815080931402809146
:104130001402882309F0B2CFDF91CF911F910F9124
:104140000895EF92FF920F931F93CF93DF931092F6
:104150001202C9E2D0E004E087C0E82EFF24EC9E02
:10416000A001ED9E500DFC9E500D1124FA01E35468
:10417000FE4F2081822F8150823008F070C0DF0115
:1041800011962230B1F4818181508183882309F016
:1041900066C082818F5F8283883049F40083CA01C0
:1041A0008E539E4F60E070E00E948C1C58C08C9330
:1041B00005C082E0808381E08C93128200911D040F
:1041C00010911E048CE0F80111928A95E9F7809114
:1041D000120290E00E94BA22F8019183808381E06C
:1041E000828380E091E095838483C0911D04D09107
:1041F0001E042C9689E290E0E89EF001E99EF00D05
:10420000F89EF00D1124EF53FE4F3196DE0111960A
:1042100090E003C08D933196922F80818E3221F0F1
:10422000292F2F5F8823B1F798838081882311F08D
:10423000ED01EBCF90931102ED01E7E5F1E085E0B0
:10424000019009928150E1F780911D0415966A2F23
:10425000681B90911E0470E00E94D3220AC08091D6
:1042600012028F5F8093120280911202823008F452
:1042700074CFDF91CF911F910F91FF90EF90089530
:10428000E0912406F0912506868197818050954320
:1042900061F48091250483FF02C00E94A1208091D7
:1042A000250481FF02C00E9406200895FC01808140
:1042B0009181A281B3812481358146815781820F0A
:1042C000931FA41FB51F80839183A283B383089596
:1042D0000F931F938C010E94501EE0E0F0E0D80184
:1042E0002D913D914D915C911397621B730B840B43
:1042F000950B6F5F7F4F8F4F9F4F14962D913D9180
:104300004D915C911797261737074807590710F406
:10431000E1E0F0E0CF011F910F9108950F931F93FB
:104320008C01FC0144835583668377830E94501E71
:10433000F80160837183828393831F910F910895A5
:10434000FC015381560F50933F06272F332742819C
:10435000420F40933E06A181A0933D06E081E09389
:104360003C06842F90E08217930748F48A2F8F5FD2
:1043700080933D06882319F4EF5FE0933C06852F78
:1043800090E070708617970790F4842F8F5F80936A
:104390003E06882361F480913D068F5F80933D0641
:1043A000882329F480913C068F5F80933C06089512
:1043B0009C0141505040460F571FFB010EC07081B9
:1043C00060E08181DB01A80FB11D2A0F3B1F2A1776
:1043D0003B0710F42F5F3F4F3296E417F50778F351
:1043E000E417F50749F4908180E0280F391F28175A
:1043F000390710F42F5F3F4FC901089580E090E026
:1044000065E372E044E150E00E94D821009719F47E
:104410002FEF3FEF02C0382F292FC90108950F93C6
:104420001F930091380210E0045110403091370280
:1044300020E0020F131F9801280F311DC90161E40C
:1044400072E048E050E00E94D82169E472E0A801DF
:104450000E94D821009719F42FEF3FEF02C0382FA8
:10446000292FC9011F910F91089586E00E940F2204
:10447000089581E10E940F22089580E009C0E82F8D
:10448000F0E0EE0FFF1FE45EF94F118210828F5FA4
:104490008230A8F320E04AEF50E00DC0822F90E078
:1044A000849FF001859FF00D949FF00D1124E85D2D
:1044B000FB4F118E2F5F223088F380E094E09093C1
:1044C0004B0680934A0620E04BE050E00EC0822F5E
:1044D00090E0849FF001859FF00D949FF00D1124D2
:1044E000EA5DF94F158214822F5F223080F320930A
:1044F00046060895AC011092460620E01AC0E22F4D
:10450000F0E0322F3F5FEE0FFF1FDF01A45EB94FD7
:104510008D919C911197892B59F4209346064D93C8
:104520005C93E05EF94F7183608321E030E007C067
:10453000232F223020F32093460620E030E0C901EB
:104540000895BC01809126049091270408960E944A
:10455000A021E0912604F091270480913C068087F9
:1045600080913D06818780913E06828780913F063B
:1045700083870895282F892F922F0895AC019B01DE
:10458000161617067CF4609323043093240480915C
:104590001F04909120044817590721F0BA01A9017E
:1045A0000E94BF0E0895AC01FB011616170684F495
:1045B00060932304F093240420911F04309120047D
:1045C0008217930729F0C901BA01AF010E94150FA4
:1045D0000895EF92FF920F931F93CF93DF93009173
:1045E000260410912704843009F44AC22DE532E0F4
:1045F00030931E0420931D043093200420931F0445
:104600008330C9F4D80159968C9159978F708330B3
:1046100011F00C945F2B50968D919C915197892BA2
:1046200011F00C945F2B88E0809325045C96ED914B
:10463000FC915D97BAC6823009F0A5C0809143060F
:104640008F5F80934306882399F4809142068F5FA1
:1046500080934206882361F4809141068F5F8093A6
:104660004106882329F4809140068F5F809340069D
:104670001092220410922104109224041092230418
:10468000F801218D273011F0253081F4D8015A9698
:104690008C915A978F5F5A968C935A97883711F05E
:1046A0000C945F2B59961C920C945F2B222311F4CF
:1046B0000C945F2BF80180899189892B09F45BC0E8
:1046C000828D8150828F8F5F11F00C945F2B338D20
:1046D000383029F02150223088F4353079F4D8016F
:1046E00059961C9280E880932504E0912604F0916D
:1046F0002704048CF58DE02D099564C6353010F043
:1047000080E307C083E090E002C0880F991F3A95CC
:10471000E2F7F801828F838D8F5F838F818D90E028
:104720008F70907083309105D1F08430910544F4FE
:104730008130910509F415C4029709F0C0C70CC077
:104740008630910509F4C9C58830910509F4C5C5BD
:10475000049709F0B4C7C1C51092560205C484E09D
:1047600080932504E0912604F0912704048CF58DB4
:10477000E02D099567C62F70233009F0A0C788E0A7
:10478000809325040BC6853019F5E0912406F0913D
:10479000250684819581892B09F491C710922704FD
:1047A00010922604C9010C9790931E0480931D0457
:1047B0009093200480931F041092240410922304E9
:1047C000109222041092210488E08093250454C1A1
:1047D00018EDE12E1FEFF12EE20EF31E809135024F
:1047E000853419F08FEF97E131C0609137028091E5
:1047F0003802362F20E0482F50E0240F351F8091DB
:104800002104909122048217930750F0962F80E0A4
:10481000840F951F909322048093210410E009C017
:1048200080ED97E10E944D1E83EA97E10E944D1EA4
:1048300011E080913B0290E08F739070892B21F4FE
:1048400080913C02882329F08DE897E10E944D1E5B
:1048500036C720911502309116028091780190910F
:1048600079012817390731F48091170290911802C5
:10487000892BA1F0809145029091460282179307FF
:1048800009F01DC72091470230914802809117021C
:10489000909118022817390709F011C70E94FE21CC
:1048A0008F5F9F4F59F08BE797E10E944D1E1123B8
:1048B00009F405C787E597E10E944D1E80913E02ED
:1048C000863009F443C1813109F43FC0813019F0C9
:1048D0008DE397E1BBCF80914902883019F088E2DF
:1048E00097E1B4CF1092490280914B0290914C0213
:1048F0002FEF873F920710F0099601C0089690931A
:104900004C0280934B028091410290914202D70168
:1049100051969C938E9350978091430290914402BC
:1049200053969C938E935297809115029091160204
:104930001D969C938E931C9780911702909118025C
:104940001F969C938E931E97BEC6809121049091D2
:1049500022044C97909322048093210481E592E0F5
:1049600090931E0480931D0480914F0290915002F9
:10497000892B81F00E9439228F5F9F4F59F085E18A
:1049800097E10E944D1E112309F499C681EF96E12B
:104990000E944D1E86E296E09093250680932406A1
:1049A00046C02481358121153105E1F180914B020A
:1049B00090914C0282179307A9F526813781211522
:1049C000310539F08091490290914A02821793078C
:1049D00049F52081318180917801909179012817E2
:1049E000390721F482819381892B69F180917C01BF
:1049F00090917D012817390729F4828193818F5F77
:104A00009F4F09F1809141029091420282179307D2
:104A100049F4209143023091440282819381281706
:104A2000390789F03B96F0932506E0932406E09140
:104A30002406F091250686E0EC33F80708F4B1CFA0
:104A40008FEC96E103CF109227041092260482E0A7
:104A50008093250481E592E090931E0480931D04C9
:104A60009093200480931F04109224041092230436
:104A7000E0912406F09125060184F285E02D099548
:104A800020912304309124042115310509F417C61F
:104A9000C9014C969093220480932104909337028D
:104AA00080933802E0912406F0912506808580935A
:104AB0003D0281E180933E02C901089690934D0228
:104AC00080934E021092500210924F028481958181
:104AD00090934A02809349028681978190934C0279
:104AE00080934B028091150290911602909342029E
:104AF0008093410280911702909118029093440292
:104B00008093430280819181909346028093450275
:104B10008281938190934802809347028DE592E0D1
:104B200090931E0480931D040E94392280959095D5
:104B30009093500280934F02892B09F09DC58FEF0F
:104B40009FEF9093500280934F0296C50E943522AA
:104B50008F5F9F4F19F08CEB96E178CE80914104E6
:104B6000882379F120914B0230914C0280912C04E2
:104B700090912D042817390721F520914902309191
:104B80004A0280912E0490912F0428173907C9F406
:104B90002091410230914202809128049091290491
:104BA0002817390771F42091430230914402809113
:104BB0002A0490912B042817390719F4C8E2D4E08D
:104BC000EEC180913B05882369F120914B02309121
:104BD0004C0280912605909127052817390711F579
:104BE0002091490230914A0280912805909129052F
:104BF00028173907B9F4209141023091420280917F
:104C00002205909123052817390761F4209143026A
:104C10003091440280912405909125052817390789
:104C200009F4BBC1809156028F73823011F58091D7
:104C30004B0290914C02909345068093440610924B
:104C4000460613C0E42FF0E0EE0FFF1FE45EF94FBD
:104C500020914406309145068081918128173907BB
:104C600009F475C04F5F40934606409146064230B6
:104C700048F38091560282FD22C584E1F70181A3A9
:104C800088E290E0909322048093210480E580A341
:104C90009091500280915402838F30914F02809105
:104CA0005302828F368F40914E0280915202818F43
:104CB000458F20914D022093460680915102808FAE
:104CC000248F9F5F978F992361F4832F8F5F868F47
:104CD000882339F4842F8F5F858F882311F42F5F09
:104CE000248F2091490230914A0230934506209347
:104CF000440680914B0290914C02D70155969C93AB
:104D00008E93549757963C932E93569780914102D9
:104D10009091420251969C938E93509780914302BA
:104D20009091440253969C938E93529780911502D2
:104D3000909116021D969C938E931C97809117025A
:104D4000909118021F969C938E931E977AC440935D
:104D50004406109245061092460600E010E06AEF05
:104D600070E026C0422F50E0469FF001479FF00DB3
:104D7000569FF00D1124E85DFB4F818D882311F4BF
:104D80008F011AC0873089F40115110529F0928D21
:104D9000F801828D891748F4469F8001479F100DC6
:104DA000569F100D1124085D1B4F2F5F2093460660
:104DB000209146062230B0F20115110519F48AE956
:104DC00096E144CD1093270400932604E091440615
:104DD000F0914506EE0FFF1FE05EF94F8081918153
:104DE000D8015D969C938E935C9783E05A968C9342
:104DF0005A9758968C93589756961C92569784E0DB
:104E000057968C9357975B961C925B9780914B02B9
:104E100090914C0215969C938E9314978091490221
:104E200090914A0217969C938E9316978091410217
:104E30009091420211969C938E938091430290919F
:104E4000440213969C938E93129781E059968C930B
:104E50005997809140061C968C931C97809141062F
:104E60001D968C931D97809142061E968C931E97DB
:104E7000809143061F968C931F9781E090E0519696
:104E80009C938E935097809150021B968C931B9706
:104E900080914F021A968C931A9780914E02199620
:104EA0008C93199780914D0218968C9381E090E035
:104EB0000E94A1228091550290E0807F9070813500
:104EC00091050CF44EC01092460636C0F901E95D1A
:104ED000FD4F86A980934706882309F442C081309C
:104EE00021F44F5F4093460627C08230C9F487A95A
:104EF0008430B1F430AD20E081AD90E0822B932B73
:104F00009093450680934406B1E08F3B9B0710F0D9
:104F10008EEB91E0F801938B828B958B848B21C073
:104F200090914606E92FF0E0E95DFD4F87A98823BF
:104F3000C1F0890F8093460640914606242F30E049
:104F40008091550290E074E0959587957A95E1F708
:104F50000597880F991F880F991F281739070CF498
:104F6000B5CF80E180935602809156028260809393
:104F7000560282E080935D0284E080935E0281E0CD
:104F800080935F028EEB809360028CE290E09093BE
:104F900022048093210480E6E8C2C2E2D5E08E01BB
:104FA000D0932704C09326041092250480915602C2
:104FB000482F50E082FF07C0198E85E796E10E94D6
:104FC0004D1E80E26FC280915502869586958C7346
:104FD00080934606209121043091220424513040D0
:104FE000281B31093093220420932104898D8F706E
:104FF000823029F44F7350704231510509F1232B4F
:1050000039F48091560290E083709070892BC1F042
:1050100090914D028885981709F09DC290914E029B
:105020008985981709F097C290914F028A85981741
:1050300009F091C2909150028B85981709F08BC2AC
:105040008091560284FF4AC068897989611571058B
:1050500009F444C0CE010C960E94A0214091510257
:1050600080913C064817D1F53091520280913D065F
:105070003817A1F52091530280913E06281771F54B
:105080009091540280913F06981741F54C873D87D7
:105090002E879F878B8D8823D1F42E89988D8A8DBA
:1050A000981B822F869586958695981B392F320FEF
:1050B0003E8B8F89282F26952695821B97FD9195EB
:1050C000890F8F8B369536953695380F388F81E05E
:1050D00080932504888D8A8F198A188A898D282FB4
:1050E00030E0C9018F7090708430910509F4E5C1FA
:1050F000853091055CF48230910591F18330910502
:105100000CF0BBC0019709F0DAC210C086309105DF
:1051100009F419C2863091050CF4EFC1873091056E
:1051200009F419C2089709F0CAC2B6C180912504D2
:1051300080FFC5C283E0898F80E480932504198AAB
:10514000188A20912104309122042115310509F497
:1051500021C182E480932504C9010E94A1221AC1C1
:105160008091250480FF78C0809156028F73823130
:1051700009F072C08091550290E0807F9070813577
:1051800091050CF44DC01092460635C0F901E95D59
:10519000FD4F86A980934706882309F441C08130DA
:1051A00021F44F5F4093460626C08230C1F487A9A0
:1051B0008430A9F430AD20E081AD90E0822B932BB8
:1051C0009093450680934406F1E08F3B9F0710F0D3
:1051D0008EEB91E09B8B8A8B9D8B8C8B21C0909169
:1051E0004606E92FF0E0E95DFD4F87A98823C1F06D
:1051F000890F8093460640914606242F30E0809127
:10520000550290E054E0959587955A95E1F70597FA
:10521000880F991F880F991F281739070CF4B6CFEC
:1052200083E0898F80914D02888780914E02898723
:1052300080914F028A87809150028B8781E090E0B5
:105240000E94A12282E480932504198A188A109270
:105250002204109221049EC080E280932504E091F4
:105260002604F0912704048CF58DE02D0995E0913A
:105270002604F0912704118EFCCC8091560280FF09
:1052800030C024FD2EC088899989892B09F017C266
:10529000809121049091220401960E94A1222091E4
:1052A0002504822F806180932504809121049091B0
:1052B0002204892B19F0226120932504E091260411
:1052C000F0912704048CF58DE02D099581E090E0A4
:1052D000998B888B88E0898F1B8E81E180935602A1
:1052E0003DC185FF21C060915B02362F20E04091D7
:1052F0005C0250E0242B352B80911D0490911E04FC
:10530000820F931F90931E0480931D04962F80E0BC
:10531000842B952B2091210430912204281B390BDA
:1053200030932204209321042091210430912204FF
:105330002115310559F0898D84FD08C0809125041F
:10534000826080932504C9010E94A1229091570296
:1053500080E020915802820F911D90934506809322
:1053600044062C893D892817390710F0892B21F430
:10537000309345062093440680914406909145065B
:105380009B8B8A8B8091250490E083709070892B91
:1053900009F495C11092240410922304E09126048C
:1053A000F0912704048CF58DE02D0995809125045A
:1053B000282F85FF09C01092240410922304D801DD
:1053C00059961C9284E18ACF84FF0DC01092240468
:1053D0001092230481E090E0F801918B808B84E0AF
:1053E000818F138E7ACF8091230490912404892B8E
:1053F00039F120FF05C0D80151961C921E9250979A
:10540000F801808991890097B9F4228933898091C4
:105410002304909124042817390720F4309324049E
:10542000209323048091230490912404D801519661
:105430009C938E93509704C09093240480932304EC
:10544000F801138E80911F049091200490931E0404
:1054500080931D048091230490912404892B71F082
:10546000D80150968D919C915197009739F088966C
:10547000909322048093210488E10BC0809125043D
:1054800081FF1DC188E290E0909322048093210463
:1054900080E18093560268C08091250480FF0FC18F
:1054A000198E80E180932504E0912604F091270471
:1054B000048CF58DE02D099502C180912104909115
:1054C0002204009711F00E94A1228091560290912F
:1054D000250480FF0BC090FF06C087E0898F1A8EDD
:1054E000198A188A19C086E0898F16C090FF24C0D7
:1054F00085E0898F198A188AE2C0809121049091F1
:105500002204009711F00E94A1228091560280FF90
:1055100013C087E0898F1A8E81E090E00E94A1225B
:1055200080E180932504E0912604F0912704048C07
:10553000F58DE02D09950FC08091210490912204F2
:10554000892B49F4BCC08091250480FFB8C087E056
:10555000898F1A8EB4C080E1F70181A388E290E0C0
:10556000909322048093210480E580935502D80112
:1055700018968C9118978093510219968C911997CF
:10558000809352021A968C911A97809353021B961D
:105590008C911B97809354021C968C911C9780933E
:1055A0004D021D968C911D9780934E021E968C91F4
:1055B0001E9780934F021F968C911F9780935002E5
:1055C00086E080933E0214968D919C91159790935E
:1055D0004A028093490216968D919C911797909359
:1055E0004C0280934B028091150290911602909389
:1055F0004202809341028091170290911802909389
:105600004402809343028D919C911197909346029E
:105610008093450212968D919C9113979093480226
:105620008093470259968C9184FF05C010925802CE
:105630001092570206C081E0809357028EEB809350
:10564000580280E480933D028091220480933702C7
:10565000809121048093380210925C0210925B02C8
:1056600010925A02109259020E943522809590950C
:1056700090935A028093590285E4809335021092E8
:10568000360210923C0210923B02809148069091A3
:1056900049060196909349068093480690933902F3
:1056A00080933A021092400210923F020E94FE2123
:1056B000809590959093400280933F0204C0109291
:1056C00022041092210410922504DF91CF911F91A2
:1056D0000F91FF90EF900895CF92DF92EF92FF929B
:1056E0000F931F93CF93DF938C017B016A01A091ED
:1056F0004A06B0914B0611968DE7A030B80710F01E
:10570000A0E0B0E13A2F2B2F80912A0690912B0632
:105710008217930781F380913506909136068217A0
:10572000930749F3A0934A06B0934B06109246069E
:1057300020E06BE070E020C0422F50E0322F3F5F4E
:10574000469FF001479FF00D569FF00D1124EA5D32
:10575000F94FEF01249684819581892B61F4209380
:105760004606B883A983F782E682D286C1860115F0
:10577000110571F408C0232F2230F0F22093460661
:10578000E0E0F0E01EC010821182128213820CC091
:10579000D8018D919C9111979183808312968D9160
:1057A0009C911397938382838BE090E0489FF00154
:1057B000499FF00D589FF00D1124EA5DF94F80E4E8
:1057C0008087CF01DF91CF911F910F91FF90EF90D4
:1057D000DF90CF900895CF92DF92EF92FF920F93D8
:1057E0001F93CF93DF938C01D62EC72E1092A8065D
:1057F000ECE4F6E060E09BE0E92EF12C45C0C62F1A
:10580000D0E0CE9DD001CF9DB00DDE9DB00D112416
:10581000FD01E45BF94F408151814115510551F182
:10582000228133812115310529F1F801808191818F
:1058300084179507F9F48281938182179307D1F435
:105840006093A806FD01E05BF94F8D2D9C2D9C0116
:10585000D90186E00D9001928150E1F78BE090E054
:10586000C89FF001C99FF00DD89FF00D1124E45B93
:10587000F94F78C0CE9DF001CF9DF00DDE9DF00D6B
:105880001124E95AF94F6F5F683008F4B8CF1092CD
:10589000A80620E04BE050E017C0822F90E0849FE4
:1058A000F001859FF00D949FF00D1124E45BF94FFA
:1058B00080819181892B39F482819381892B19F41C
:1058C0002093A8063CC02F5F283038F32093A80609
:1058D0002830A9F51092AA061092AB06A091A9064D
:1058E000CA2FD0E060E070E040E08BE0E82EF12CC1
:1058F00018C0842F90E08E9DF0018F9DF00D9E9D2D
:10590000F00D1124E45BF94F52859E01251B3109EE
:10591000872F90E0821793071CF47A2F751B642F52
:105920004F5F483030F36093AB067093AA066093E4
:10593000A8068BE0689FF0011124E45BF94FE801B1
:1059400088819981AA81BB81EF0189939993A99359
:10595000B9932D2D3C2DC901DC0186E00D900992F3
:105960008150E1F78091A9068287DF91CF911F9145
:105970000F91FF90EF90DF90CF900895CF93DF933A
:1059800080912104909122048A9728F41092220495
:1059900010922104A6C01092220410922104C7E2A2
:1059A000D2E080913B0290913C0221E0803092074E
:1059B00029F08050924009F094C076C020914D02A9
:1059C00030914E02809115029091160228173907E6
:1059D00009F087C020914F02309150028091170248
:1059E000909118022817390709F07BC0CE014C9618
:1059F000BE016A5E7F4F0E94EB2B80E092E09093A5
:105A00003C0280933B02DE019096FE01769686E092
:105A100001900D928150E1F7ADE3B2E0E1E2F2E0F6
:105A200086E001900D928150E1F7ADE2B2E0E1E253
:105A3000F2E086E001900D928150E1F7E7E2F2E0BA
:105A4000DF01909686E00D9001928150E1F7809100
:105A500043029091440290934E0280934D028091B4
:105A60004502909146029093500280934F0280919C
:105A70001502909116029093440280934302809104
:105A8000170290911802909346028093450288E095
:105A900096E090933402809333028AE290E09093F0
:105AA0002204809321041DC020914D0230914E02AA
:105AB00080911502909116022817390791F42091D0
:105AC0004F023091500280911702909118022817CE
:105AD000390739F4CE014C96BE016A5E7F4F0E94B1
